{
  "_format": "hh-sol-artifact-1",
  "contractName": "Certificate_Verify",
  "sourceName": "contracts/Certificate_Verify.sol",
  "abi": [
    {
      "inputs": [],
      "stateMutability": "nonpayable",
      "type": "constructor"
    },
    {
      "anonymous": false,
      "inputs": [
        {
          "indexed": false,
          "internalType": "uint256",
          "name": "verify_code",
          "type": "uint256"
        },
        {
          "indexed": false,
          "internalType": "string",
          "name": "signer_address",
          "type": "string"
        },
        {
          "indexed": false,
          "internalType": "string",
          "name": "owner_address",
          "type": "string"
        },
        {
          "indexed": false,
          "internalType": "string",
          "name": "course_name",
          "type": "string"
        },
        {
          "indexed": false,
          "internalType": "bool",
          "name": "valid",
          "type": "bool"
        },
        {
          "indexed": false,
          "internalType": "uint256",
          "name": "date",
          "type": "uint256"
        },
        {
          "indexed": false,
          "internalType": "uint256",
          "name": "expired_date",
          "type": "uint256"
        }
      ],
      "name": "CertificateAdded",
      "type": "event"
    },
    {
      "anonymous": false,
      "inputs": [
        {
          "indexed": false,
          "internalType": "uint256",
          "name": "verify_code",
          "type": "uint256"
        },
        {
          "indexed": false,
          "internalType": "bool",
          "name": "valid",
          "type": "bool"
        }
      ],
      "name": "UpdateCertificate",
      "type": "event"
    },
    {
      "inputs": [
        {
          "internalType": "uint256",
          "name": "verifycode",
          "type": "uint256"
        },
        {
          "internalType": "string",
          "name": "signeraddress",
          "type": "string"
        },
        {
          "internalType": "string",
          "name": "owneraddress",
          "type": "string"
        },
        {
          "internalType": "string",
          "name": "coursename",
          "type": "string"
        },
        {
          "internalType": "bool",
          "name": "validty",
          "type": "bool"
        },
        {
          "internalType": "uint256",
          "name": "givendate",
          "type": "uint256"
        },
        {
          "internalType": "uint256",
          "name": "expireddate",
          "type": "uint256"
        }
      ],
      "name": "CertificateAdd",
      "outputs": [],
      "stateMutability": "nonpayable",
      "type": "function"
    },
    {
      "inputs": [
        {
          "internalType": "uint256",
          "name": "verifycode",
          "type": "uint256"
        },
        {
          "internalType": "bool",
          "name": "valid",
          "type": "bool"
        }
      ],
      "name": "changeValid",
      "outputs": [
        {
          "internalType": "bool",
          "name": "",
          "type": "bool"
        }
      ],
      "stateMutability": "nonpayable",
      "type": "function"
    },
    {
      "inputs": [
        {
          "internalType": "uint256",
          "name": "verifycode",
          "type": "uint256"
        }
      ],
      "name": "checkCode",
      "outputs": [
        {
          "internalType": "uint256",
          "name": "",
          "type": "uint256"
        },
        {
          "internalType": "string",
          "name": "",
          "type": "string"
        },
        {
          "internalType": "string",
          "name": "",
          "type": "string"
        },
        {
          "internalType": "string",
          "name": "",
          "type": "string"
        },
        {
          "internalType": "bool",
          "name": "",
          "type": "bool"
        },
        {
          "internalType": "uint256",
          "name": "",
          "type": "uint256"
        },
        {
          "internalType": "uint256",
          "name": "",
          "type": "uint256"
        }
      ],
      "stateMutability": "view",
      "type": "function"
    },
    {
      "inputs": [
        {
          "internalType": "uint256",
          "name": "verifycode",
          "type": "uint256"
        }
      ],
      "name": "isExist",
      "outputs": [
        {
          "internalType": "bool",
          "name": "",
          "type": "bool"
        }
      ],
      "stateMutability": "view",
      "type": "function"
    },
    {
      "inputs": [
        {
          "internalType": "address",
          "name": "_newSigner",
          "type": "address"
        }
      ],
      "name": "setSigner",
      "outputs": [
        {
          "internalType": "address",
          "name": "",
          "type": "address"
        }
      ],
      "stateMutability": "nonpayable",
      "type": "function"
    },
    {
      "inputs": [],
      "name": "signer",
      "outputs": [
        {
          "internalType": "address",
          "name": "",
          "type": "address"
        }
      ],
      "stateMutability": "view",
      "type": "function"
    }
  ],
  "bytecode": "0x608060405234801561001057600080fd5b50336000806101000a81548173ffffffffffffffffffffffffffffffffffffffff021916908373ffffffffffffffffffffffffffffffffffffffff1602179055506112b1806100606000396000f3fe608060405234801561001057600080fd5b50600436106100625760003560e01c8063238ac933146100675780632518e467146100855780633e0a8b52146100bb5780636c19e783146100eb5780639f78838b1461011b578063ca8f8ff314610137575b600080fd5b61006f610167565b60405161007c9190610877565b60405180910390f35b61009f600480360381019061009a91906108dc565b61018b565b6040516100b297969594939291906109c3565b60405180910390f35b6100d560048036038101906100d09190610a73565b6103e4565b6040516100e29190610ab3565b60405180910390f35b61010560048036038101906101009190610afa565b610548565b6040516101129190610877565b60405180910390f35b61013560048036038101906101309190610c5c565b61061f565b005b610151600480360381019061014c91906108dc565b610813565b60405161015e9190610ab3565b60405180910390f35b60008054906101000a900473ffffffffffffffffffffffffffffffffffffffff1681565b60006060806060600080600080600160008a81526020019081526020016000206040518060e0016040529081600082015481526020016001820180546101d090610d81565b80601f01602080910402602001604051908101604052809291908181526020018280546101fc90610d81565b80156102495780601f1061021e57610100808354040283529160200191610249565b820191906000526020600020905b81548152906001019060200180831161022c57829003601f168201915b5050505050815260200160028201805461026290610d81565b80601f016020809104026020016040519081016040528092919081815260200182805461028e90610d81565b80156102db5780601f106102b0576101008083540402835291602001916102db565b820191906000526020600020905b8154815290600101906020018083116102be57829003601f168201915b505050505081526020016003820180546102f490610d81565b80601f016020809104026020016040519081016040528092919081815260200182805461032090610d81565b801561036d5780601f106103425761010080835404028352916020019161036d565b820191906000526020600020905b81548152906001019060200180831161035057829003601f168201915b505050505081526020016004820160009054906101000a900460ff16151515158152602001600582015481526020016006820154815250509050806000015181602001518260400151836060015184608001518560a001518660c00151975097509750975097509750975050919395979092949650565b60006103ef83610813565b61042e576040517f08c379a000000000000000000000000000000000000000000000000000000000815260040161042590610e24565b60405180910390fd5b6000600160008581526020019081526020016000206006015490508042111561050757826001600086815260200190815260200160002060040160006101000a81548160ff0219169083151502179055507fa3130a738578a4e2e3b9b775e44dd3902d679b08f369b009ef5c3c99816b8afd846001600087815260200190815260200160002060040160009054906101000a900460ff166040516104d3929190610e44565b60405180910390a16001600085815260200190815260200160002060040160009054906101000a900460ff16915050610542565b6040517f08c379a000000000000000000000000000000000000000000000000000000000815260040161053990610eb9565b60405180910390fd5b92915050565b60008060009054906101000a900473ffffffffffffffffffffffffffffffffffffffff1673ffffffffffffffffffffffffffffffffffffffff163373ffffffffffffffffffffffffffffffffffffffff16146105d9576040517f08c379a00000000000000000000000000000000000000000000000000000000081526004016105d090610f4b565b60405180910390fd5b816000806101000a81548173ffffffffffffffffffffffffffffffffffffffff021916908373ffffffffffffffffffffffffffffffffffffffff16021790559050919050565b60008054906101000a900473ffffffffffffffffffffffffffffffffffffffff1673ffffffffffffffffffffffffffffffffffffffff163373ffffffffffffffffffffffffffffffffffffffff16146106ad576040517f08c379a00000000000000000000000000000000000000000000000000000000081526004016106a490610f4b565b60405180910390fd5b6106b687610813565b156106f6576040517f08c379a00000000000000000000000000000000000000000000000000000000081526004016106ed90610fdd565b60405180910390fd5b60006040518060e00160405280898152602001888152602001878152602001868152602001851515815260200184815260200183815250905080600160008a815260200190815260200160002060008201518160000155602082015181600101908161076291906111a9565b50604082015181600201908161077891906111a9565b50606082015181600301908161078e91906111a9565b5060808201518160040160006101000a81548160ff02191690831515021790555060a0820151816005015560c082015181600601559050507f131fdb8f84ce8c7e5371f4a9c2aa8d875a0781fd68084f4182c45e2c3b07a9f78888888888888860405161080197969594939291906109c3565b60405180910390a15050505050505050565b600080600160008481526020019081526020016000206000015414159050919050565b600073ffffffffffffffffffffffffffffffffffffffff82169050919050565b600061086182610836565b9050919050565b61087181610856565b82525050565b600060208201905061088c6000830184610868565b92915050565b6000604051905090565b600080fd5b600080fd5b6000819050919050565b6108b9816108a6565b81146108c457600080fd5b50565b6000813590506108d6816108b0565b92915050565b6000602082840312156108f2576108f161089c565b5b6000610900848285016108c7565b91505092915050565b610912816108a6565b82525050565b600081519050919050565b600082825260208201905092915050565b60005b83811015610952578082015181840152602081019050610937565b60008484015250505050565b6000601f19601f8301169050919050565b600061097a82610918565b6109848185610923565b9350610994818560208601610934565b61099d8161095e565b840191505092915050565b60008115159050919050565b6109bd816109a8565b82525050565b600060e0820190506109d8600083018a610909565b81810360208301526109ea818961096f565b905081810360408301526109fe818861096f565b90508181036060830152610a12818761096f565b9050610a2160808301866109b4565b610a2e60a0830185610909565b610a3b60c0830184610909565b98975050505050505050565b610a50816109a8565b8114610a5b57600080fd5b50565b600081359050610a6d81610a47565b92915050565b60008060408385031215610a8a57610a8961089c565b5b6000610a98858286016108c7565b9250506020610aa985828601610a5e565b9150509250929050565b6000602082019050610ac860008301846109b4565b92915050565b610ad781610856565b8114610ae257600080fd5b50565b600081359050610af481610ace565b92915050565b600060208284031215610b1057610b0f61089c565b5b6000610b1e84828501610ae5565b91505092915050565b600080fd5b600080fd5b7f4e487b7100000000000000000000000000000000000000000000000000000000600052604160045260246000fd5b610b698261095e565b810181811067ffffffffffffffff82111715610b8857610b87610b31565b5b80604052505050565b6000610b9b610892565b9050610ba78282610b60565b919050565b600067ffffffffffffffff821115610bc757610bc6610b31565b5b610bd08261095e565b9050602081019050919050565b82818337600083830152505050565b6000610bff610bfa84610bac565b610b91565b905082815260208101848484011115610c1b57610c1a610b2c565b5b610c26848285610bdd565b509392505050565b600082601f830112610c4357610c42610b27565b5b8135610c53848260208601610bec565b91505092915050565b600080600080600080600060e0888a031215610c7b57610c7a61089c565b5b6000610c898a828b016108c7565b975050602088013567ffffffffffffffff811115610caa57610ca96108a1565b5b610cb68a828b01610c2e565b965050604088013567ffffffffffffffff811115610cd757610cd66108a1565b5b610ce38a828b01610c2e565b955050606088013567ffffffffffffffff811115610d0457610d036108a1565b5b610d108a828b01610c2e565b9450506080610d218a828b01610a5e565b93505060a0610d328a828b016108c7565b92505060c0610d438a828b016108c7565b91505092959891949750929550565b7f4e487b7100000000000000000000000000000000000000000000000000000000600052602260045260246000fd5b60006002820490506001821680610d9957607f821691505b602082108103610dac57610dab610d52565b5b50919050565b7f436572746966696361746520776974682074686520676976656e20766572696660008201527f7920636f646520646f6573206e6f742065786973740000000000000000000000602082015250565b6000610e0e603583610923565b9150610e1982610db2565b604082019050919050565b60006020820190508181036000830152610e3d81610e01565b9050919050565b6000604082019050610e596000830185610909565b610e6660208301846109b4565b9392505050565b7f4365727469666963617465206973207374696c6c2076616c6964000000000000600082015250565b6000610ea3601a83610923565b9150610eae82610e6d565b602082019050919050565b60006020820190508181036000830152610ed281610e96565b9050919050565b7f4f6e6c7920746865207369676e65722063616e2063616c6c207468697320667560008201527f6e6374696f6e2100000000000000000000000000000000000000000000000000602082015250565b6000610f35602783610923565b9150610f4082610ed9565b604082019050919050565b60006020820190508181036000830152610f6481610f28565b9050919050565b7f43657274696669636174652077697468207468697320636f646520616c72656160008201527f6479206578697374732e00000000000000000000000000000000000000000000602082015250565b6000610fc7602a83610923565b9150610fd282610f6b565b604082019050919050565b60006020820190508181036000830152610ff681610fba565b9050919050565b60008190508160005260206000209050919050565b60006020601f8301049050919050565b600082821b905092915050565b60006008830261105f7fffffffffffffffffffffffffffffffffffffffffffffffffffffffffffffffff82611022565b6110698683611022565b95508019841693508086168417925050509392505050565b6000819050919050565b60006110a66110a161109c846108a6565b611081565b6108a6565b9050919050565b6000819050919050565b6110c08361108b565b6110d46110cc826110ad565b84845461102f565b825550505050565b600090565b6110e96110dc565b6110f48184846110b7565b505050565b5b818110156111185761110d6000826110e1565b6001810190506110fa565b5050565b601f82111561115d5761112e81610ffd565b61113784611012565b81016020851015611146578190505b61115a61115285611012565b8301826110f9565b50505b505050565b600082821c905092915050565b600061118060001984600802611162565b1980831691505092915050565b6000611199838361116f565b9150826002028217905092915050565b6111b282610918565b67ffffffffffffffff8111156111cb576111ca610b31565b5b6111d58254610d81565b6111e082828561111c565b600060209050601f8311600181146112135760008415611201578287015190505b61120b858261118d565b865550611273565b601f19841661122186610ffd565b60005b8281101561124957848901518255600182019150602085019450602081019050611224565b868310156112665784890151611262601f89168261116f565b8355505b6001600288020188555050505b50505050505056fea2646970667358221220175837321bb6e270016bed413e86f00cccd76ead55eeccc5dd9fdcf2a0c9490164736f6c63430008120033",
  "linkReferences": {},
  "deployedLinkReferences": {}
}